:10199F00121A8612183B121E06121DF378017C00D4
:1019AF007DFE7E007F0712010E7819E2FF08E278B4
:1019BF0008CFF208EFF21218FB1214D5120C89801F
:0119CF00F522
:091DC8008B88898C88898F888939
:1009E6005200978686008686008686008686008662
:0909F600860086860041008C0990
:03002B00021DFAB9
:061DFA0053BCEFD21532CC
:0203BE001569BF
:1003C000201503020567C21590008BE0B4090040B8
:1003D000030205499003DBF8282873020422020374
:1003E000F60204080204340203F602040802044B75
:1003F0000203F6020408AFBDEFFEADBE7C00E42DA3
:10040000FFEC3E90008D803CAFBDEFFEADBE7C00AA
:10041000E42DFFEC3E90008FF0A3EFF07563010236
:10042000054FAFBDEFFEADBE7C00E42DFFEC3E906E
:1004300000918010AFBDEFFEADBE7C00E42DFFEC5F
:100440003E900093F0A3EFF002054FAFBDEFFEAD7D
:10045000BE7C00E42DFFEC3E900095F0A3EFF09001
:100460000095E0FEA3E07807CEC313CE13D8F9A819
:1004700069F6C394065013A869E675F003A424979F
:10048000F582E43400F583E014F090008CE014F081
:10049000600302054F7409F0A869E4F6A869E6FF55
:1004A000C39406400302054FEF75F003A42497F5AB
:1004B00082E43400F583E0C39480502AE6FF75F0AF
:1004C00003A42498F582E43400F583E0D3948040BB
:1004D00040EF75F003A42499F582E43400F58374A9
:1004E00001F0F564802BA869E6FF75F003A4249859
:1004F000F582E43400F583E0C394805014EF75F086
:1005000003A42499F582E43400F5837402F0756441
:1005100001A869E6FF75F003A42497F582E434008E
:10052000F583E0FEEF75F003A42498F582E434002F
:10053000F583EEF0E675F003A42497F582E4340029
:10054000F5837486F00602049C90008B74FFF09093
:10055000008BE0D39407400374FFF090008BE0041D
:07056000F0901DC893F5BCEB
:0305670005692201
:021D5200156911
:091D5400A869A664E4F564E6FF49
:031D5D00056922F3
:021D6000156903
:091D6200A869A663E4F563E6FF3D
:031D6B00056922E5
:1019D0008F9D75BC88439720D2AD90006274FFF054
:1019E000A37403F0A374BEF0A374FFF0A3741DF0FE
:1019F000A37452F0A374FFF0A3741DF0A37460F0FD
:011A000022C3
:070003007B017A00798D22D8
:1017B100C3EF64809480403BD3EF648094855033C1
:1017C100EFFD3395E0FC90009975F003ED1203AC49
:1017D100EC75F003A42583F583E0FE90009975F084
:1017E10003ED1203ACEC75F003A42583F583E4F05B
:0517F100AF06227F039A
:0117F60022D0
:041ADA00156915690C
:101ADE00121DDAA869A60608A607A869E6FE08E69A
:0F1AEE00FF4E600BEF24FFFFEE34FFFE121DE3EF
:051AFD000569056922E6
:101BBA0053B1EF43B210121E13E4F5D975DA49D2C4
:101BCA00DE90005C74FFF0A3741AF0A374DAF022BA
:081315008E258F268C278D2800
:10131D00121DDAEF4E7066AF28AE27121DE3C3E53E
:10132D0026940AE5259400404BE47B18FAF9F890D1
:10133D001E0C1203901202D7C006C007AE25AF26B1
:10134D00AB07AA06E4F9F8D007D0061202D7AB070F
:10135D00AA06AFF9EFFEADE97C00E42DFFEC3ECF20
:10136D002BCF3AAD07FCAF03AE02121D13D2D843FB
:0F137D00DA018006121E1353DAFE7F02227F036D
:01138C00223E
:0C1DB100121DDAEF4E7002FF227F0122AB
:100AD300E4F5809000CBE0FFB40800505F900AE794
:100AE300F8282873020AFF020B05020B0B020B11F5
:100AF300020B17020B21020B2B020B35C2A3C2A25E
:100B03008016C2A3C2A2801AC2A3C2A2801EC2A31D
:100B1300C2A28022C2A3D2A2C2A1C2A08020C2A329
:100B2300D2A2C2A1D2A08016C2A3D2A2D2A1C2A035
:100B3300800CC2A3D2A2D2A1D2A08002D2A3C3EFBF
:100B43006480948850299000CBE0FF3395E0FE74D5
:100B5300C22FF58274003EF583E0FF3395E0FE7407
:100B63002A2FF582741B3EF583E493F580801E9053
:100B730000CBE0FFB408133395E0FE74C22FF58277
:100B830074003EF583E0F5808003E4F5809000C1B6
:100B9300E0FF9000CBE004FEF0D3EF6480F8EE6456
:100BA30080984014E0D36480948850047408F02241
:090BB3009000C0E09000CBF0229C
:101C7000E4F5937594FF5395F043960F90004774E5
:0B1C8000FFF0A3740AF0A374D3F0225D
:091DD1009000C0EFF0A3EDF02238
:101BDA009000C2EFF0A3EDF0A3EBF0A3E526F0A38B
:101BEA00E527F0A3E528F0A3E529F0A3E52AF022EA
:061E00009000CAEFF02281
:1009FF000167004900CD94940094940094940041B1
:030A0F0000CC1EFA
:0206B3001569C7
:1006B50020B2069000CDE014F020B3069000D0E003
:1006C50014F02097069000D3E014F09000CCE014CD
:1006D500F060030207D3741EF0A869E4F6A869E682
:1006E500FFC36480948340030207D3EF3395E0FE94
:1006F5009000CD75F003EF1203ACEE75F003A42561
:1007050083F583E0C3948050399000CE75F003EFF4
:100715001203ACEE75F003A42583F583E0D3948032
:10072500405AE6FF3395E0FE9000CF75F003EF12D7
:1007350003ACEE75F003A42583F5837401F0F5672A
:10074500803AA869E6FF3395E0FE9000CE75F00388
:10075500EF1203ACEE75F003A42583F583E0C39493
:100765008050199000CF75F003EF1203ACEE75F0D1
:1007750003A42583F5837402F0756701A869E6FF74
:10078500FD3395E0FC9000CD75F003ED1203ACEC64
:1007950075F003A42583F583E0FE9000CE75F00384
:1007A500ED1203ACEC75F003A42583F583EEF0EFB1
:1007B5003395E0FE9000CD75F003EF1203ACEE75B6
:0E07C500F003A42583F5837494F0060206E287
:0307D30005692293
:021D6E001569F5
:091D7000A869A667E4F567E6FF27
:031D7900056922D7
:101C1A0090004D74FFF0A3741DF0A3746EF0900051
:0D1C2A004A74FFF0A37406F0A374B3F02217
:10187C00EF600764016003BF0233EFFD3395E0FCBA
:10188C009000CF75F003ED1203ACEC75F003A425BA
:10189C0083F583E0FE9000CF75F003ED1203ACEC02
:0F18AC0075F003A42583F583E4F0AF06227F03D4
:0118BB00220A
:100A120041001D0A4100460A41008A0A04450000BD
:100A22000000014A004600840000FFFF8FFFC10A58
:100A3200C105C108C101C10B60240022FF000AFFE9
:100A4200000AFF000AFF000AFF000AFF000AFF0077
:100A52000AFF000AFF000AFF000AFF000AFF000A5D
:100A620060360047FF000AFF000AFF1E10FF000A5F
:100A7200FF1E10FF000AFF1E10FF000AFF000AFF00
:100A8200000AFF1E10FF1E10FF1E10FF1E10FF00A7
:0A0A92000AFF000AFF000AFF000A35
:01000A0022D3
:031E10007F00222E
:10176A00438E805389F07BE07A2879017800901EB5
:10177A000C1203901217F7EFF404F58A7BE07A282B
:10178A0079017800901E0C1203901217F7C3E49F98
:10179A00FFE49EFE74019DFDE49CFC780812037C24
:0717AA008F8CD28CD2A92222
:03000B00021634A6
:04163400C0E0C0D082
:10163800D53F0A753F4C300A02054AD20AA2037206
:101648000450361541E5417030854341D2073009D1
:1016580017E54460071544438F01801D538FFEC270
:10166800B5D54C15C20980110542E542D394064010
:0916780008C203E5496002D20634
:05168100D0D0D0E032E2
:1015E100300B47C20B901E0C120390781012037C33
:1015F1008E658F66900020E0FEA3E0FFE4FCFD7B9A
:1016010019FAF9F812024CC006C007AE65AF66AB15
:1016110007AA06E4F9F8D007D0061217F7780312E3
:10162100037C900082EEF0A3EFF0900082E0FEA335
:02163100E0FFD8
:011633002294
:091DDA00900084E0FEA3E0FF226A
:091DE300900084EEF0A3EFF02261
:101D1300900088EEF0A3EFF0900086ECF0A3EDF0D6
:011D2300229D
:031E1300C2B42234
:03003B00020E139F
:100E1300C0E0C083C082C0D075D000C004C005C08C
:030E230006C007FF
:100E260030DF04C2DF807D30DA04C2DA807630D962
:100E36003DC2D9AFFBEFFEADEB7C00E42DFFEC3EEF
:100E460020000E90001EF0A3EFF075DB11D200809B
:100E560053FE90001EE0FCA3E0FDC3EF9DFFEE9C59
:100E6600A3F0A3EFF075DB00C200D20B803630D8BA
:100E760033C2D8900084E07002A3E06022B2B4903E
:100E86000086E0FEA3E0F5EAEEF5FAA3E0FEA3E0B5
:100E9600FF900087E02FF0900086E03EF08005C2CC
:040EA600B453DAFE69
:100EAA00D007D006D005D004D0D0D082D083D0E0ED
:010EBA003205
:061E060012176AD2AF22A0
:10107F003004047F0180027F002009047E0180027A
:10108F007E00EE5F6074E54BC395405068300236CA
:10109F00754401E54B131313541FAB4DAA4EA94FC3
:1010AF00F582758300120134FFE54B540704FEEF00
:1010BF00A806088002C333D8FC30D705754C0380CF
:1010CF002F754C01802AAB4DAA4EA94F75F002E542
:1010DF004BA4F58285F083120134F544E54B75F08E
:1010EF0002A429F9EA35F0FA900001120134F54C07
:0A10FF00054BD20922C204438F10F2
:0111090022C3
:100BBC0090001DE014F0701F740AF0D205900046EE
:100BCC00E014F07012740AF0D20890008AE014F06D
:100BDC007005740AF0D201900047A3E0FAA3E0F983
:100BEC001203B890004AA3E0FAA3E0F91203B890FC
:100BFC000056A3E0FAA3E0F91203B8900062A3E058
:100C0C00FAA3E0F91203B8900071A3E0FAA3E0F99B
:100C1C001203B890007AA3E0FAA3E0F91203B8909B
:100C2C000022A3E0FAA3E0F91203B8900068A3E055
:100C3C00FAA3E0F91203B8EF600C90003AA3E0FAC3
:100C4C00A3E0F91203B890006BA3E0FAA3E0F91249
:100C5C0003B8EF600C90003DA3E0FAA3E0F9120397
:100C6C00B890006EA3E0FAA3E0F91203B8EF600CA1
:0D0C7C00900040A3E0FAA3E0F91203B822B3
:100F600090005CA3E0FAA3E0F91203B890005FA33D
:100F7000E0FAA3E0F91203B8900050A3E0FAA3E06E
:100F8000F91203B8900025A3E0FAA3E0F91203B820
:100F900090004DA3E0FAA3E0F91203B8EF600C90C3
:100FA000002EA3E0FAA3E0F91203B8900053A3E0E7
:100FB000FAA3E0F91203B8EF600C900034A3E0FA52
:100FC000A3E0F91203B8900065A3E0FAA3E0F912D8
:100FD00003B8EF600C900037A3E0FAA3E0F9120326
:100FE000B830060EC206900043A3E0FAA3E0F9125F
:030FF00003B82221
:1018BC00900028A3E0FAA3E0F91203B8900059A312
:1018CC00E0FAA3E0F91203B8EF600C900031A3E04A
:1018DC00FAA3E0F91203B8900074A3E0FAA3E0F9BC
:0F18EC001203B8900077A3E0FAA3E0F90203B863
:101A5B00AF48AE47AD46AC4590007D1203A0900059
:101A6B0081E54AF0E4F548F547F546F545F54A902A
:0B1A7B00002BA3E0FAA3E0F90203B87F
:1018FB00300705C20712107F300A05C20A120BBC53
:10190B00300505C205120F60300805C2081218BC5D
:10191B00300105C201121A5BE5482401F548E43594
:0E192B0047F547E43546F546E43545F54522D7
:101298008B258A268927EFB40C0050709012ABF882
:1012A8002828730212CF0212D40212D90212DE02C7
:1012B80012E30212E80212ED0212F20212F702120F
:1012C800FC0213010213069000228035900025804D
:1012D80030900028802B90002B802690002E8021B3
:1012E800900034801C900031801790003780129055
:1012F800003A800D90003D800890004080039000E7
:0D13080043E525F0A3E526F0A3E527F0223C
:071DEC007B017A00797D22E2
:070A9C000168004100E500C4
:0D002E0020A4097568019000E57401F0221E
:021D7C001569E7
:091D7E00A869A668E4F568E6FF17
:031D8700056922C9
:101C370090005974FFF0A3741DF0A3747CF090001A
:0D1C47005674FFF0A37400F0A3742EF02279
:021D340015692F
:0A1D36009000E5E0A869F6FFE4F074
:031D400005692210
:040AA3004100DE012F
:101C8B00C295E4FEEF1392CC000000D29500EFC397
:081C9B0013FFC2950EBE08EC18
:011CA300221E
:101CBD00E4FEEFC313FF30CC03430780D295000041
:071CCD0000C2950EBE08EBFA
:011CD40022ED
:101A0100F07F85121A14A3EFF07F87121A14A3EF47
:031A1100F07F89DA
:101A1400C296000000C295000000D29600121C8BF2
:0A1A2400121CBDD295000000C2960E
:011A2E002295
:031BFA00A3E0FD68
:101BFD00C296000000C295000000D29600121C8B08
:0D1C0D00AF05121C8BD295000000C296227C
:071DF3007B017A0079D72281
:101CA40078D77C007D017B007A0079387E007F073D
:091CB40012010EE49000DEF022A2
:101D0100EFD3941F5009EF25E044C1FF021A147F5D
:021D11000122AD
:101AB100AC07AB05ECD3941F501CE4FD7F8E121BC9
:101AC100FDEC25E044C0FFAD03121BFD7D807F8E40
:091AD100121BFD7F00227F01229F
:020EBB001569B7
:100EBD009000DEE060447F81121A14A869EFF6906D
:100ECD0000D7E06F7003020F5DA869E6F07F831213
:100EDD001A14A869EFF6A3E06F6075A869E6121AF7
:100EED0001A3EFF07F8D121A149000DDEFF07F8BD0
:100EFD00121A149000DCEFF080569000D6E0FF043B
:100F0D00F0EFC3940A4049E4F09000DE04F0E4FDF4
:100F1D007F8E121BFD9000D7E0FD7F80121BFD7FA1
:100F2D0082121BFA7F84121BFAA3E0FD7F86121B2F
:100F3D00FDA3E0FD7F88121BFDA3E0FD7F8A121B40
:100F4D00FDA3E0FD7F8C121BFD7D807F8E121BFDAE
:030F5D0005692201
:1008E8007F81121A149000D7EFF07F83121A14A395
:1008F800EF121A01A3EFF07F8B121A14A3EFF07F07
:100908008D121A14A3EFF0E4FD7F8E121BFD7F1EDB
:10091800121D01EF64A560047F0180027F00900032
:10092800D7E05480FEA3E0D3945940047D018002AF
:100938007D00ED4EFE9000D9E0D394A440047D01E3
:1009480080027D00ED4EFE9000DAE0D39431400441
:100958007D0180027D00ED4EFE9000DBE0D3941215
:1009680040047D0180027D00ED4EFE9000DCE0D366
:10097800940740047D0180027D00ED4EFE9000DD6D
:10098800E0D3949940047D0180027D00ED4E4F60D4
:100998003078387C007D007B007A0079317E007FDA
:1009A8000712010E121CA47DA57F1E121AB178D75A
:1009B8007C007D017B007A0079317E007F0712017F
:1009C8000E7DA97F90121BFD7D807F8E121BFD90EE
:0E09D800007774FFF0A3740EF0A374BBF0223E
:101D2400D2C0000000D2CD000000C2C000000022DA
:0D1D8A00C2C0000000D2CD000000D2C02277
:0B1B5000121B74121B5BAF05121B740C
:101B5B00E4FFD2CD30C009EFC394FF50030F80F4E4
:081B6B00000000C2CD000000E3
:011B7300224F
:101B7400E4FEEF25E0FFC2CD00000092C0000000AB
:101B8400D2CD0000000EBE08E9C2CD000000D2C0D4
:031B94000000004E
:011B9700222B
:101B9800C2CD000000D2C000E4FED2CD0000EF2587
:101BA800E0FDA2C0E4334DFF0000C2CD000EBE0828
:011BB800E943
:011BB9002209
:10000E00AC07121D247FA0121B74121B5BAF0412CF
:05001E001B50021D8AC9
:021C5400AD07DA
:101C5600121D247FA0121B50121D247FA1121B747B
:091C6600121B5B121B98121D8A6F
:011C6F002252
:100AA7005700A904B000000000000000000000008B
:0A0AB7000000000001000000000034
:030023000207D6FB
:1007D600C0E0C0F0C083C082C0D075D000C000C0E9
:1007E60001C002C003C004C005C006C00730993B63
:1007F600C2999000B0E0FEA3E0FFC39000AFE09F77
:100806009000AEE09E501F9000ABE0FBA3E0FAA381
:10081600E0F9A3E475F00112023685F082F5831241
:100826000134F59980059000B2E4F020980302089F
:10083600CDC2989000B3E0FBA3E0FAA3E0F99000E4
:10084600B8E0FEA3E0FFF5828E83E5991201619080
:1008560000BEE0FCA3E0FDC3EF9DEE9C5046900079
:10086600B6E0FEA3E0FFED9FEC9E50389000BBE0A3
:10087600FBA3E0FAA3E0F99000B8E0FEA3E0FFF5E1
:10088600828E83120134FD9000B3E0FBA3E0FAA34D
:10089600E0F98F828E831201346D60089000B8747F
:1008A600FFF0A3F09000B8E475F001120220FED329
:1008B6009000B7E095F09000B6E09E500A9000B820
:1008C600E4F0A3F0A304F0D007D006D005D004D0FE
:1008D60003D002D001D000D0D0D082D083D0F0D0C7
:0208E600E032FE
:021D4300156920
:0A1D45009000BAE0A869F6FFE4F090
:031D4F0005692201
:10110A008E238F24759850438E40538EFE53890F39
:10111A00E47B04FAF9F8901E0C1203901202D7C06D
:10112A0006C007AE23AF24AB07AA06E4F9F8D00736
:10113A00D0061202D7EFF404F58BE47B04FAF9F82F
:10114A00901E0C1203901202D7C006C007AE23AF3E
:10115A0024AB07AA06E4F9F8D007D0061202D7C3CF
:10116A00E49FFFE49EFE74019DFDE49CFC78081256
:10117A0003698F8DC2ABD28ED2AC90006B74FFF034
:09118A00A3741DF0A37443F022CC
:101939009000B3EBF0A3EAF0A3E9F0A3ECF0A3ED78
:10194900F09000BEE558F0A3E559F09000BBE555CD
:10195900F0A3E556F0A3E557F0E49000B8F0A3F042
:03196900A3F022C6
:101B02009000B2E0701F9000ABEBF0A3EAF0A3E903
:101B1200F0E4A3F0A3F0A3ECF0A3EDF0A37401F0C2
:081B2200D2997F02227F032209
:0B1DBD009000B2E07002FF227F0122C4
:03000000020FF3F9
:0C0FF300787FE4F6D8FD75816902103AA1
:041E0C0000A8C0006A
:101A2F00E4FF121E00121C70E4FF121E007D07E47B
:101A3F00FF121DD175262475272475282475292496
:0C1A4F00752A247B247D247F24021BDAEE
:101216008F308D2E8B2D85262C85272B85282A858C
:10122600292FE4FF121C549000DFEFF07F01121CFF
:10123600549000E0EFF07F02121C549000E1EFF0B2
:101246007F03121C549000E2EFF09000DFE0FF7E77
:10125600007C0E7D101201838E5C8F5D9000E0E0B5
:1012660075F03CA4AEF0255DF55DEE355CF55C9061
:1012760000E1E0255DF55DE4355CF55C78317C00E8
:101286007D007B007A00792A7E007F0712010E021C
:0212960008E866
:101A86007F007EC212110A7F981219D0121BBA1259
:101A96001A2FE4F526F527F5287529017B017D0720
:0B1AA6007FE6121216121C1A021C37F9
:101B2A003F065B4F666D7D077F6F777C395E797103
:101B3A003D760F0E753837545C73673149783E1C11
:061B4A007E646E5900806C
:10140300EFFD3395E0FCD374309DEC6480F8748079
:1014130098500FED9439EC648094805005EF24D0FC
:10142300FF22EFFD3395E0FCD374619DEC6480F8FB
:10143300748098500FED947AEC648094805005EF9B
:1014430024A9FF22EFFD3395E0FCD374419DEC64A6
:1014530080F8748098500FED9441EC648094805030
:0914630005EF24BFFF227F2422C3
:101CED0002FF056A04FF196C07FF168606FF17220F
:041CFD0008FF119338
:10183B00752305E4F524E524C395235033E52425CE
:10184B00E025E024EDF582E4341CF583E493FFE519
:10185B002425E025E024EEF582E4341CF583E493A3
:10186B00FB740193FA740293F9121298052480C643
:01187B00224A
:10196C007F0112187C8F25EF6401700512153380EE
:0A197C0009E52564027003121E162F
:10198600E4FF12187C8F25EF64017003020D53E506
:081996002564027003121E1902
:01199E002226
:10168600E4FF1217B1EF640170031200267F031204
:1016960017B1EF6401700312158B7F021217B1EFB9
:1016A600640170031216D57F051217B1EF6401703D
:1016B6000312146C7F041217B1EF64017003121D3C
:0F16C600977F011217B1EF64017003121DA42268
:0D0AC100011F01C18D8100034200E3FF0A07
:100D5300121DF378017C007DFE7E007F0712010ED9
:100D6300C213C2117801E2FD5470C4540F75F00A26
:100D7300A4FFAEF0ED540F7C002FF51BEC3EF51AEB
:100D830008E2FD5470C4540F75F00AA4FFED540F2C
:100D93002FFFEC35F0FE7D3C120183EF251BF51B85
:100DA300EE351AF51A7803E2FD5470C4540F75F04A
:100DB3000AA4FFED540F2FFFEC35F0FE7C0E7D10DF
:100DC300120183EF251BF51BEE351AF51A200E29A8
:100DD3009000DFE0FF7E001201838E5C8F5D900048
:100DE300E0E075F03CA4AEF0255DF55DEE355CF515
:100DF3005C9000E1E0255D800F9000E2E075F03C3F
:100E0300A485F05CF55D2405F55DE4355CF55C22B5
:101533007819E2FF08E27808CFF208EFF218E2FA2E
:1015430008E2FB7C007D64FFAE021201958F0C7CE8
:10155300007D64AF03AE021201957E007F0ACFCDFA
:10156300CFCECCCE1201958F0B7808E2FE08E2FFB6
:101573007C007D0A1201958D0AD2147B017A0079D1
:08158300E37D017C00021B0264
:031E1600C21422D1
:05002600D210C20F2200
:10158B00201003300F43C20FC2109000DFE0FDE4C8
:10159B00FF12000E7F0A7E00121CD59000E0E0FDCA
:1015AB007F0112000E7F0A7E00121CD59000E1E035
:1015BB00FD7F0212000E7F0A7E00121CD59000E206
:1015CB00E0FD7F0312000E8009A20DB3920D5005B2
:0615DB00C20E120D5322A6
:1016D50030102C9000E0E024FBFFC3943C500280C6
:1016E5000D9000DFE014F09000E0E02437FF90005B
:1016F500E0EFF09000DFE075F03784E5F0F02230A0
:101705000F1A9000E2E024FEFFC3943C50028007CC
:0D1715009000E2E0243AFF9000E2EFF022A5
:10146C0030103A9000E0E0FF2405FDE433FCC3EDBE
:10147C00943CEC648094805006EF2405FF800D9022
:10148C0000DFE004F09000E0E024C9FF9000E0EF02
:10149C00F09000DFE075F03784E5F0F022300F2893
:1014AC009000E2E0FF2402FDE433FCC3ED943CEC3D
:1014BC00648094805006EF2402FF80079000E2E0E5
:0914CC0024C6FF9000E2EFF022BB
:0D1D9700A210720F5006A210920FB210227F
:0D1DA400A210720F5006A210920FB2102272
:10172200200E19E55D24D4E55C34FEC36480948008
:10173200402674D4255DF55D74FE8017E55D24882E
:10174200E55C34FFC364809480400D7488255DF5A8
:101752005D74FF355CF55C22AE5CAF5D7C007D3C68
:081762001201EA8C5C8D5D228E
:10056A00200D030206B230110302064A121DF37867
:10057A000A7C007DFE7E007F0712010E780AE2FDEA
:10058A005470C4540F75F00AA4FFAEF0ED540F7CFA
:10059A00002FF509EC3EF50808E2FD5470C4540F2B
:1005AA0075F00AA4FFED540F2FFFEC35F0FE7D3CE9
:1005BA00120183EF2509F509EE3508F508780CE2F2
:1005CA00FD5470C4540F75F00AA4FFED540F2FFFA9
:1005DA00EC35F0FE7C0E7D10120183EF2509F5093A
:1005EA00EE3508F50812138DE51E75F00A84F5122A
:1005FA00E51E75F00A8485F011E51D75F00A84F58B
:10060A0014E51D75F00A8485F013E51C75F00A845B
:10061A00F516E51C75F00A8485F015E51D7021E5CF
:10062A001C701DAF1ED3EF9414748094805011D2A5
:10063A0013EF700CD2117D01FC7F107E2712131567
:10064A007811E2FE08E2FF7808E2FC08E2C39FFFA5
:10065A00EC9EFED3EF940AEE64809480400305106A
:10066A0022AF107E00C3EF9402748094804026D398
:10067A00EF940674809480501CC213200E0A742CC6
:10068A00255DF55D740180077478255DF55DE435B7
:10069A005CF55C8010C3EF9407EE6480948040059B
:0906AA00B20E120D53E4F510220A
:1011930012000378137C007DFE7E007F0A12010E8D
:1011A3000519E519641E705BE518240FFFE4351774
:1011B300FE7C007D1E1201957811EEF208EFF21805
:1011C300E2FA08E2FB7C007D64FFAE021201958F18
:1011D3000F7C007D64AF03AE021201957E007F0A8F
:1011E300CFCDCFCECCCE1201958F0E7811E2FE0873
:1011F300E2FF7C007D0A1201958D0DE4F519F517C8
:10120300F518227819E2FE08E22518F518EE3517CD
:03121300F51722AA
:011E190022A6
:10138D00C3E509951BF55BE508951AF55AC3E55DAF
:10139D00955BF55FE55C955AF55EC364809480506E
:1013AD0020E55F243CFFE4355EFE7C007D3C1201B0
:1013BD00EA8C5E8D5FE55F255BF55DE55E355AF583
:1013CD005CAE5EAF5F7C0E7D101201EA8F1CAE5ECF
:1013DD00AF5F7C0E7D101201EA7E007F3CCFCDCF3A
:1013ED00CECCCE1201EA8F1DAE5EAF5F7C007D3C90
:0613FD001201EA8D1E2220
:041CD500EF4E60135B
:101CD90075250B7526BED526FDD525FAEF1F70ECA7
:011CE9001EDC
:031CEA0080E9226C
:040ACE0002600000C2
:1014D5000561E56170020560A20D82135004AF1F1E
:1014E50080027F00121E007F017E00121CD5C3E51D
:1014F500619414E56094004034AF1FEF648060058B
:10150500EF64017003636201E562600FAF1F78014C
:10151500EF08800123D8FDF51F800DAF1F7801EF7F
:0E15250008800103D8FDF51FE4F560F5612292
:100C8900200D1275262475272475282475292475A5
:100C99002A24020D49301418752624752724850F36
:100CA90028850E29850D2AAB0AAD0BAF0C020D4F15
:100CB90030103E9000DFE0FE75F00A84FFEE75F01B
:100CC9000A84ADF09000E0E0FE75F00A84F526EEA6
:100CD90075F00A8485F0277528259000E1E0FE75F6
:100CE900F00A84F529EE75F00A8485F02A7B2580BF
:100CF90055300F239000E2E0FF75F00A84F526EFE6
:100D090075F00A8485F027752825E4F529F52A7BED
:100D1900257D247F24802F200E17851426851327EF
:100D290075282485122985112A7B24AD15AF1680D3
:100D39001585142685132775282485122985112AD6
:0A0D49007B247D247F24121BDA2294
:100FFF0002199FE493A3F8E493A34003F68001F250
:10100F0008DFF48029E493A3F85407240CC8C333F2
:10101F00C4540F4420C8834004F456800146F6DFC1
:10102F00E4800B01020408102040809009E6E47E62
:10103F00019360BCA3FF543F30E509541FFEE493B6
:10104F00A360010ECF54C025E060A840B8E493A37D
:10105F00FAE493A3F8E493A3C8C582C8CAC583CAA8
:10106F00F0A3C8C582C8CAC583CADFE9DEE780BE60
:010AD2000023
:10003E00E709F608DFFA8046E709F208DFFA803EA4
:10004E0088828C83E709F0A3DFFA8032E309F60891
:10005E00DFFA8078E309F208DFFA807088828C83F9
:10006E00E309F0A3DFFA806489828A83E0A3F608AD
:10007E00DFFA805889828A83E0A3F208DFFA804C87
:10008E0080D280FA80C680D4806980F2803380105E
:10009E0080A680EA809A80A880DA80E280CA8033C7
:1000AE0089828A83ECFAE493A3C8C582C8CCC5833F
:1000BE00CCF0A3C8C582C8CCC583CCDFE9DEE7800F
:1000CE000D89828A83E493A3F608DFF9ECFAA9F08E
:1000DE00EDFB2289828A83ECFAE0A3C8C582C8CCE4
:1000EE00C583CCF0A3C8C582C8CCC583CCDFEADEFD
:1000FE00E880DB89828A83E493A3F208DFF980CC5F
:10010E0088F0EF60010E4E60C388F0ED2402B40457
:10011E000050B9F582EB2402B4040050AF232345FE
:06012E00822390008E7395
:10013400BB010CE58229F582E5833AF583E0225080
:1001440006E92582F8E622BBFE06E92582F8E222CA
:0D015400E58229F582E5833AF583E49322E4
:10016100F8BB010DE58229F582E5833AF583E8F0D4
:10017100225006E92582C8F622BBFE05E92582C880
:02018100F22268
:10018300EF8DF0A4A8F0CF8CF0A428CE8DF0A42E90
:02019300FE224A
:10019500BC000BBE0029EF8DF084FFADF022E4CC4E
:1001A500F875F008EF2FFFEE33FEEC33FCEE9DEC17
:1001B500984005FCEE9DFE0FD5F0E9E4CEFD22ED5D
:1001C500F8F5F0EE8420D21CFEADF075F008EF2FA7
:1001D500FFED33FD4007985006D5F0F222C398FD98
:0501E5000FD5F0EA2235
:1001EA00C2D5EC30E709B2D5E4C39DFDE49CFCEE30
:1001FA0030E715B2D5E4C39FFFE49EFE120195C312
:10020A00E49DFDE49CFC800312019530D507C3E40C
:06021A009FFFE49EFE229E
:10022000C5F0F8A3E028F0C5F0F8E5821582700269
:060230001583E038F02206
:10023600A3F8E0C5F025F0F0E5821582700215837B
:06024600E0C838F0E822D8
:10024C00E88FF0A4CC8BF0A42CFCE98EF0A42CFC51
:10025C008AF0EDA42CFCEA8EF0A4CDA8F08BF0A4CF
:10026C002DCC3825F0FDE98FF0A42CCD35F0FCEB2E
:10027C008EF0A4FEA9F0EB8FF0A4CFC5F02ECD39F3
:0F028C00FEE43CFCEAA42DCE35F0FDE43CFC2260
:10029B0075F008758200EF2FFFEE33FECD33CDCC1A
:1002AB0033CCC58233C5829BED9AEC99E58298409D
:1002BB000CF582EE9BFEED9AFDEC99FC0FD5F0D67A
:1002CB00E4CEFBE4CDFAE4CCF9A88222B800C1B9A4
:1002DB000059BA002DEC8BF084CFCECDFCE5F0CBE2
:1002EB00F97818EF2FFFEE33FEED33FDEC33FCEB1B
:1002FB0033FB10D703994004EB99FB0FD8E5E4F9D6
:10030B00FA227818EF2FFFEE33FEED33FDEC33FCC2
:10031B00C933C910D7059BE99A4007EC9BFCE99AB6
:10032B00F90FD8E0E4C9FAE4CCFB2275F010EF2FFB
:10033B00FFEE33FEED33FDCC33CCC833C810D707FB
:10034B009BEC9AE899400AED9BFDEC9AFCE899F836
:0E035B000FD5F0DAE4CDFBE4CCFAE4C8F922C9
:1017F700C2D5E830E70FB2D5E4C39BFBE49AFAE41D
:1018070099F9E498F8EC30E717B2D512182D1202BF
:10181700D7E4C39BFBE49AFAE499F9E498F88003C8
:101827001202D730D50DE4C39FFFE49EFEE49DFD71
:04183700E49CFC220F
:10036900E8600FECC313FCED13FDEE13FEEF13FF72
:03037900D8F12296
:10037C00E86010ECA2E713FCED13FDEE13FEEF1397
:04038C00FFD8F02284
:10039000E493FC740193FD740293FE740393FF22B3
:0C03A000ECF0A3EDF0A3EEF0A3EFF022D0
:0C03AC00A42582F582E5F03583F583225C
:0603B8008A838982E473D0
:00000001FF
