:1016F100121877121580121A84121A7678007C005B
:101701007DFE7E007F0712010E7818E2FF08E27865
:1017110007CFF208EFF21216801212C4120C4B809E
:01172100F5D2
:100A960041001C0A4100450A4100890A044500003C
:100AA6000000014A004600830000FFFF8FFFC10AD5
:100AB600C105C108C101C10B60240021FF000AFF66
:100AC600000AFF000AFF000AFF000AFF000AFF00F3
:100AD6000AFF000AFF000AFF000AFF000AFF000AD9
:100AE60060360046FF000AFF000AFF1A9FFF000A51
:100AF600FF1A9FFF000AFF1A9FFF000AFF000AFF66
:100B0600000AFF1A9FFF1A9FFF1A9FFF1A9FFF00F6
:0A0B16000AFF000AFF000AFF000AB0
:01000A0022D3
:031A9F007F0022A3
:1014AF00438E805389F07BE07A2879017800901A77
:1014BF009B12032F12153CEFF404F58A7BE07A2878
:1014CF0079017800901A9B12032F12153CC3E49FE9
:1014DF00FFE49EFE74019DFDE49CFC780812031B43
:0714EF008F8CD28CD2A922E0
:03000B0002137568
:04137500C0E0C0D044
:10137900D53F0A753F4C300A02054AD20AA20372C8
:101389000450361541E5417030854341D207300993
:1013990017E54460071544438F01801D538FFEC232
:1013A900B5D54C15C20980110542E542D3940640D2
:0913B90008C203E5496002D206F6
:0513C200D0D0D0E032A4
:10132200300B47C20B901A9B12032F781012031B2B
:101332008E1E8F1F90001FE0FEA3E0FFE4FCFD7BEA
:1013420019FAF9F81201FEC006C007AE1EAF1FABB4
:1013520007AA06E4F9F8D007D00612153C78031262
:10136200031B900081EEF0A3EFF0900081E0FEA35A
:02137200E0FF9A
:011374002256
:091A5200900083E0FEA3E0FF22F6
:091A5B00900083EEF0A3EFF022ED
:1019D400900087EEF0A3EFF0900085ECF0A3EDF01B
:0119E40022E0
:031AA200C2B422A9
:03003B00020D159E
:100D1500C0E0C083C082C0D075D000C004C005C08B
:030D250006C007FE
:100D280030DF04C2DF807D30DA04C2DA807630D961
:100D38003DC2D9AFFBEFFEADEB7C00E42DFFEC3EEE
:100D480020000E90001DF0A3EFF075DB11D200809B
:100D580053FE90001DE0FCA3E0FDC3EF9DFFEE9C59
:100D6800A3F0A3EFF075DB00C200D20B803630D8B9
:100D780033C2D8900083E07002A3E06022B2B4903E
:100D88000085E0FEA3E0F5EAEEF5FAA3E0FEA3E0B5
:100D9800FF900086E02FF0900085E03EF08005C2CD
:040DA800B453DAFE68
:100DAC00D007D006D005D004D0D0D082D083D0E0EC
:010DBC003204
:061A84001214AFD2AF22E4
:100F81003004047F0180027F002009047E01800279
:100F91007E00EE5F6074E54BC395405068300236C9
:100FA100754401E54B131313541FAB4DAA4EA94FC2
:100FB100F582758300120134FFE54B540704FEEFFF
:100FC100A806088002C333D8FC30D705754C0380CE
:100FD1002F754C01802AAB4DAA4EA94F75F002E541
:100FE1004BA4F58285F083120134F544E54B75F08D
:100FF10002A429F9EA35F0FA900001120134F54C06
:0A100100054BD20922C204438F10F0
:01100B0022C2
:100B7E0090001CE014F0701F740AF0D2059000452E
:100B8E00E014F07012740AF0D208900089E014F0AC
:100B9E007005740AF0D201900046A3E0FAA3E0F9C2
:100BAE00120357900049A3E0FAA3E0F912035790FD
:100BBE000055A3E0FAA3E0F9120357900061A3E0F9
:100BCE00FAA3E0F9120357900070A3E0FAA3E0F93C
:100BDE00120357900079A3E0FAA3E0F9120357909D
:100BEE000021A3E0FAA3E0F9120357900067A3E0F7
:100BFE00FAA3E0F9120357EF600C900039A3E0FA64
:100C0E00A3E0F912035790006AA3E0FAA3E0F912E9
:100C1E000357EF600C90003CA3E0FAA3E0F9120337
:100C2E005790006DA3E0FAA3E0F9120357EF600CA2
:0D0C3E0090003FA3E0FAA3E0F91203572253
:100E620090005BA3E0FAA3E0F912035790005EA39F
:100E7200E0FAA3E0F912035790004FA3E0FAA3E0CF
:100E8200F9120357900024A3E0FAA3E0F9120357E2
:100E920090004CA3E0FAA3E0F9120357EF600C9024
:100EA200002DA3E0FAA3E0F9120357900052A3E049
:100EB200FAA3E0F9120357EF600C900033A3E0FAB3
:100EC200A3E0F9120357900064A3E0FAA3E0F91239
:100ED2000357EF600C900036A3E0FAA3E0F9120387
:100EE2005730060EC206900042A3E0FAA3E0F912C0
:030EF20003572281
:10164100900027A3E0FAA3E0F9120357900058A3F2
:10165100E0FAA3E0F9120357EF600C900030A3E029
:10166100FAA3E0F9120357900073A3E0FAA3E0F99B
:0F167100120357900076A3E0FAA3E0F9020357A3
:1017AD00AF48AE47AD46AC4590007C12033F90006C
:1017BD0080E54AF0E4F548F547F546F545F54A90DC
:0B17CD00002AA3E0FAA3E0F902035792
:10168000300705C207120F81300A05C20A120B7E0D
:10169000300505C205120E62300805C20812164157
:1016A000300105C2011217ADE5482401F548E435C3
:0E16B00047F547E43546F546E43545F5452255
:10108F008B258A268927EFB40C0050709010A2F898
:10109F002828730210C60210CB0210D00210D502FE
:1010AF0010DA0210DF0210E40210E90210EE021053
:1010BF00F30210F80210FD9000218035900024807B
:1010CF0030900027802B90002A802690002D8021C1
:1010DF00900033801C900030801790003680129063
:1010EF000039800D90003C800890003F80039000F5
:0D10FF0042E525F0A3E526F0A3E527F02249
:070003007B017A00797C22E9
:040B20004100C601C9
:10193300C295E4FEEF1392CC000000D29500EFC3F2
:0819430013FFC2950EBE08EC73
:01194B002279
:10197E00E4FEEFC313FF30CC03430780D295000083
:07198E0000C2950EBE08EB3C
:01199500222F
:10175300F07F85121766A3EFF07F87121766A3EF5A
:03176300F07F898B
:10176600C296000000C295000000D29600121933FE
:0A17760012197ED295000000C29601
:011780002246
:03189B00A3E0FDCA
:10189E00C296000000C295000000D29600121933C5
:0D18AE00AF05121933D295000000C296223A
:071A76007B017A0079BF2219
:10194C0078BF7C007D017B007A0079387E007F07B0
:09195C0012010EE49000C6F02215
:1019C200EFD3941F5009EF25E044C1FF0217667F51
:0219D2000122F0
:1017D800AC07AB05ECD3941F501CE4FD7F8E1218A8
:1017E8009EEC25E044C0FFAD0312189E7D807F8EDD
:0917F80012189E7F00227F0122DD
:020DBD00155EC1
:100DBF009000C6E060447F81121766A85EEFF69040
:100DCF0000BFE06F7003020E5FA85EE6F07F831234
:100DDF001766A85EEFF6A3E06F6075A85EE61217C0
:100DEF0053A3EFF07F8D1217669000C5EFF07F8B46
:100DFF001217669000C4EFF080569000BEE0FF041B
:100E0F00F0EFC3940A4049E4F09000C604F0E4FD0B
:100E1F007F8E12189E9000BFE0FD7F8012189E7F7C
:100E2F008212189B7F8412189BA3E0FD7F861218F5
:100E3F009EA3E0FD7F8812189EA3E0FD7F8A121803
:100E4F009EA3E0FD7F8C12189E7D807F8E12189ED0
:030E5F00055E220B
:1008AF007F811217669000BFEFF07F83121766A348
:1008BF00EF121753A3EFF07F8B121766A3EFF07FA2
:1008CF008D121766A3EFF0E4FD7F8E12189E7F1E28
:1008DF001219C2EF64A560047F0180027F009000AF
:1008EF00BFE05480FEA3E0D3945940047D01800201
:1008FF007D00ED4EFE9000C1E0D394A440047D0135
:10090F0080027D00ED4EFE9000C2E0D39431400492
:10091F007D0180027D00ED4EFE9000C3E0D3941266
:10092F0040047D0180027D00ED4EFE9000C4E0D3B7
:10093F00940740047D0180027D00ED4EFE9000C5BE
:10094F00E0D3949940047D0180027D00ED4E4F600D
:10095F003078387C007D007B007A0079317E007F13
:10096F000712010E12194C7DA57F1E1217D878BFE2
:10097F007C007D017B007A0079317E007F071201B8
:10098F000E7DA97F9012189E7D807F8E12189E90EB
:0E099F00007674FFF0A3740DF0A374BDF02277
:03000000020EF5F8
:0C0EF500787FE4F6D8FD75815E020F3CAA
:041A9B0000A8C000DF
:10178100E4FF121A90121918E4FF121A907D07E46F
:10179100FF121A6D752624752724752824752924AE
:0C17A100752A247B247D247F240218DBA1
:101801008F308D2E8B2D85262C85272B85282A859B
:10181100292F78317C007D007B007A00792A7E00B7
:081821007F0712010E0208AF5F
:101877007F981217221218BB121781E4F526F52755
:10188700F5287529017B017D077FE61218011200F3
:041897000E0218FB2A
:101851003F065B4F666D7D077F6F777C395E7971DF
:101861003D760F0E753837545C73673149783E1CED
:061871007E646E59008048
:1011F200EFFD3395E0FCD374309DEC6480F874808D
:1012020098500FED9439EC648094805005EF24D00F
:10121200FF22EFFD3395E0FCD374619DEC6480F80E
:10122200748098500FED947AEC648094805005EFAE
:1012320024A9FF22EFFD3395E0FCD374419DEC64B9
:1012420080F8748098500FED9441EC648094805043
:0912520005EF24BFFF227F2422D6
:1019AE0002FF050904FF16BE07FF13C706FF15C188
:0419BE0008FF100C02
:10158000752305E4F524E524C395235033E524258C
:10159000E025E024AEF582E43419F583E493FFE519
:1015A0002425E025E024AFF582E43419F583E493A3
:1015B000FB740193FA740293F912108F052480C60C
:0115C0002208
:1016BE007F011216018F25EF6401700512146380ED
:1016CE0009E52564027003121AA5E4FF1216018FB4
:1016DE0025EF64017003021184E525640270031284
:0316EE001AA82215
:1013C700E4FF1214F6EF64017003121A967F0312FA
:1013D70014F6EF640170031219657F021214F6EF19
:1013E700640170031214167F051214F6EF6401707E
:1013F7000312125B7F041214F6EF640170031200EC
:0F1407002E7F011214F6EF64017003121A2C22CB
:090B240002180000011D01C18D41
:10118400121A7678007C007DFE7E007F0712010E25
:10119400C213C2117800E2FF5470C4540F75F00AF0
:1011A400A4FEEF540F2EF208E2FF5470C4540F75DE
:1011B400F00AA4FEEF540F2EF208E2FF5470C45458
:1011C4000F75F00AA4FEEF540F2EF2200E139000B8
:1011D400C7E0F5539000C8E0F5509000C9E0F5561B
:0E11E400229000CAE0F550E4F553755615222E
:101463007818E2FF08E27807CFF208EFF218E2FA01
:1014730008E2FB7C007D64FFAE021201738F0A7CDD
:10148300007D64AF03AE021201737E007F0ACFCDED
:10149300CFCECCCE1201738F097807E2FE08E2FFAC
:0C14A3007C007D0A1201738D08D2142217
:031AA500C2142246
:051A9600D210C20F2276
:10196500201003300F06C20FC2108009A20DB392DA
:091975000D5005C20E121184226E
:1014160030102C9000C8E024FBFFC3943C5002809F
:101426000D9000C7E014F09000C8E02437FF90004C
:10143600C8EFF09000C7E075F03784E5F0F0223091
:101446000F1A9000CAE024FEFFC3943C50028007A6
:0D1456009000CAE0243AFF9000CAEFF02297
:10125B0030103A9000C8E0FF2405FDE433FCC3EDE9
:10126B00943CEC648094805006EF2405FF800D9035
:10127B0000C7E004F09000C8E024C9FF9000C8EF5D
:10128B00F09000C7E075F03784E5F0F022300F28BE
:10129B009000CAE0FF2402FDE433FCC3ED943CEC68
:1012AB00648094805006EF2402FF80079000CAE010
:0912BB0024C6FF9000CAEFF022E6
:0D002E00A210720F5006A210920FB2102205
:0D1A2C00A210720F5006A210920FB21022ED
:1015C1007D017C007F287E0012110C200E1EE5504B
:1015D10024FBFFC3943C5002800FE553600915536F
:1015E100E5502437FF80027F008F5022E55024FE12
:1015F100FFC3943C50028005E550243AFF8F5022EE
:10050900200D030206743011030205DD121A7678F4
:10051900097C007DFE7E007F0712010E7809E2FF4B
:100529005470C4540F75F00AA4FEEF540F2EF2084C
:10053900E2FF5470C4540F75F00AA4FEEF540F2E55
:10054900F208E2FF5470C4540F75F00AA4FEEF5488
:100559000F2EF278257C007D007BFE7A0079007EE3
:10056900007F0712010E782C7C007D007BFE7A004B
:1005790079097E007F0712010E120798E51C75F0B4
:100589000A84F510E51C75F00A8485F00FE51B75E2
:10059900F00A84F512E51B75F00A8485F011E51A55
:1005A90075F00A84F514E51A75F00A8485F013E5E7
:1005B9001B7021E51A701DAF1CD3EF94147480943D
:1005C900805011D213EF700CD2117D01FC7F107E87
:1005D9002712110C7810E2FE08E2FF7807E2FC0806
:1005E900E2C39FFFEC9EFED3EF940AEE64809480F1
:1005F9004003050E22AF0E7E00C3EF94027480946F
:10060900804055D3EF940674809480504BC21320D8
:100619000E25E5502405FFEE33FEC3EF943CEE644E
:100629008094805007E5502405FF80070553E55065
:1006390024C9FF8F508031E5502402FFE433FEC303
:10064900EF943CEE64809480E55050052402FF80CD
:100659000324C6FF8F508010C3E50E94077480945D
:0C066900804005B20E121184E4F50E2250
:10100C00121A7D78127C007DFE7E007F0A12010E82
:10101C000517E517641E705BE516240FFFE4351504
:10102C00FE7C007D1E1201737810EEF208EFF218B0
:10103C00E2FA08E2FB7C007D64FFAE021201738FC2
:10104C000D7C007D64AF03AE021201737E007F0A3B
:10105C00CFCDCFCECCCE1201738F0C7810E2FE0820
:10106C00E2FF7C007D0A1201738D0BE4F517F51578
:10107C00F516227818E2FE08E22516F516EE35155F
:03108C00F5152235
:011AA800221B
:100B2D004100C7004100C8324100C9154100CA0B40
:090B3D000153000150320156156C
:10079800C3E52D9526FFE49400FE7C007D3C120104
:1007A80061AA06AB07C3E52E9527FFEC9400FE7CF3
:1007B8000E7D10120161EF2BFFEE3AFEC3E52C957A
:1007C80025FDE49400CD2FF552ED3EF551AF507E56
:1007D800007C007D3C120161AA06AB07AF537E0086
:1007E8007C0E7D10120161EF2BFFEE3AFE7C00EFCC
:1007F8002556FFEC3EFEC3EF9552F555EE9551F5A3
:1008080054C3648094805052E5522555FFE5513514
:1008180054FEE5522FF555E5513EF554FEAF557C93
:100828000E1201C88F53AE54AF557C0E7D101201C5
:10083800C87E007F3CCFCDCFCECCCE1201C88F5022
:10084800AE54AF557C007D3C1201C88D56C3E555AA
:100858009552F555E5549551F554AE54AF557C0E67
:100868007D101201C88F1AAE54AF557C0E7D101240
:1008780001C87E007F3CCFCDCFCECCCE1201C88F31
:100888001BAE54AF557C007D3C1201C88D1CE52879
:10089800B52F03D38001C3400D74179527252EFF6C
:0708A800C3E5539FF51A227E
:10199600EF4E601375230B7524BED524FDD523FAAF
:0819A600EF1F70EC1E80E92226
:040B46000257000052
:1012C4000558E55870020557A20D82135004AF1D4E
:1012D40080027F00121A907F017E00121996C3E5E6
:1012E400589414E55794004034AF1DEF64806005B2
:1012F400EF64017003635901E559600FAF1D780174
:10130400EF08800123D8FDF51D800DAF1D7801EF96
:0E13140008800103D8FDF51DE4F557F55822B9
:100C4B00200D1275262475272475282475292475E3
:100C5B002A24020D0B301418752624752724850DB4
:100C6B0028850C29850B2AAB08AD09AF0A020D119B
:100C7B0030103E9000C7E0FE75F00A84FFEE75F071
:100C8B000A84ADF09000C8E0FE75F00A84F526EEFC
:100C9B0075F00A8485F0277528259000C9E0FE754C
:100CAB00F00A84F529EE75F00A8485F02A7B2580FD
:100CBB0055300F239000CAE0FF75F00A84F526EF3C
:100CCB0075F00A8485F027752825E4F529F52A7B2C
:100CDB00257D247F24802F200E1785122685112732
:100CEB00752824851029850F2A7B24AD13AF14801A
:100CFB0015851226851127752824851029850F2A1D
:0A0D0B007B247D247F241218DB22D4
:091A64008B88898C88898F8889A0
:100B4A0052009686860086860086860086860086FD
:090B5A00860086860041008B092B
:03002B00021A8A2C
:061A8A0053BCEFD215323F
:02035D00155E2B
:10035F00201503020506C21590008AE0B40900407B
:10036F00030204E890037AF82828730203C10203FA
:10037F00950203A70203D30203950203A70203EA20
:10038F000203950203A7AFBDEFFEADBE7C00E42DC7
:10039F00FFEC3E90008C803CAFBDEFFEADBE7C000D
:1003AF00E42DFFEC3E90008EF0A3EFF0755A0102A2
:1003BF0004EEAFBDEFFEADBE7C00E42DFFEC3E9032
:1003CF0000908010AFBDEFFEADBE7C00E42DFFECC2
:1003DF003E900092F0A3EFF00204EEAFBDEFFEAD42
:1003EF00BE7C00E42DFFEC3E900094F0A3EFF09064
:1003FF000094E0FEA3E07807CEC313CE13D8F9A87C
:10040F005EF6C394065013A85EE675F003A4249617
:10041F00F582E43400F583E014F090008BE014F0E3
:10042F0060030204EE7409F0A85EE4F6A85EE6FF2E
:10043F00C3940640030204EEEF75F003A42496F56F
:10044F0082E43400F583E0C39480502AE6FF75F010
:10045F0003A42497F582E43400F583E0D39480401D
:10046F0040EF75F003A42498F582E43400F583740B
:10047F0001F0F55B802BA85EE6FF75F003A42497CF
:10048F00F582E43400F583E0C394805014EF75F0E7
:10049F0003A42498F582E43400F5837402F0755BAD
:1004AF0001A85EE6FF75F003A42496F582E43400FC
:1004BF00F583E0FEEF75F003A42497F582E4340092
:1004CF00F583EEF0E675F003A42496F582E434008C
:1004DF00F5837486F00602043B90008A74FFF09057
:1004EF00008AE0D39407400374FFF090008AE00481
:0704FF00F0901A6493F5BCB4
:03050600055E226D
:0219F400155E7E
:0919F600A85EA65BE4F55BE6FFC8
:0319FF00055E2260
:021A0200155E6F
:091A0400A85EA65AE4F55AE6FFBB
:031A0D00055E2251
:101722008F9D75BC88439720D2AD90006174FFF005
:10173200A37403F0A3745DF0A374FFF0A37419F013
:10174200A374F4F0A374FFF0A3741AF0A37402F06C
:011752002274
:071A7D007B017A00798C2245
:1014F600C3EF64809480403BD3EF6480948550337F
:10150600EFFD3395E0FC90009875F003ED12034B68
:10151600EC75F003A42583F583E0FE90009875F042
:1015260003ED12034BEC75F003A42583F583E4F079
:05153600AF06227F0357
:01153B00228D
:04182900155E155ED5
:10182D00121A52A85EA60608A607A85EE6FE08E6EE
:0F183D00FF4E600BEF24FFFFEE34FFFE121A5B2D
:05184C00055E055E22AF
:1018BB0053B1EF43B210121AA2E4F5D975DA49D23B
:1018CB00DE90005B74FFF0A37418F0A37429F02270
:08110C008E258F268C278D280B
:10111400121A52EF4E7066AF28AE27121A5BC3E55F
:1011240026940AE5259400404BE47B18FAF9F890DC
:101134001A9B12032F120289C006C007AE25AF26E0
:10114400AB07AA06E4F9F8D007D006120289AB0768
:10115400AA06AFF9EFFEADE97C00E42DFFEC3ECF2B
:101164002BCF3AAD07FCAF03AE021219D4D2D84349
:0F117400DA018006121AA253DAFE7F02227F03ED
:011183002249
:0C1A4600121A52EF4E7002FF227F0122A4
:1009AD00E4F5809000B3E0FFB40800505F9009C1FA
:1009BD00F82828730209D90209DF0209E50209EBBB
:1009CD000209F10209FB020A05020A0FC2A3C2A223
:1009DD008016C2A3C2A2801AC2A3C2A2801EC2A345
:1009ED00C2A28022C2A3D2A2C2A1C2A08020C2A351
:1009FD00D2A2C2A1D2A08016C2A3D2A2D2A1C2A05D
:100A0D00800CC2A3D2A2D2A1D2A08002D2A3C3EFE6
:100A1D006480948850299000B3E0FF3395E0FE7414
:100A2D00AA2FF58274003EF583E0FF3395E0FE7446
:100A3D00512FF58274183EF583E493F580801E9056
:100A4D0000B3E0FFB408133395E0FE74AA2FF582CE
:100A5D0074003EF583E0F5808003E4F5809000A9F5
:100A6D00E0FF9000B3E004FEF0D3EF6480F8EE6495
:100A7D0080984014E0D36480948850047408F02268
:090A8D009000A8E09000B3F022F3
:10191800E4F5937594FF5395F043960F9000467441
:0B192800FFF0A37409F0A374ADF022DF
:091A6D009000A8EFF0A3EDF022B7
:1018DB009000AAEFF0A3EDF0A3EBF0A3E526F0A3A5
:1018EB00E527F0A3E528F0A3E529F0A3E52AF022EC
:061A90009000B2EFF0220D
:100B6300015C004900B5949400949400949400416E
:030B730000B41EAD
:02067500155E10
:1006770020B2069000B5E014F020B3069000B8E071
:1006870014F02097069000BBE014F09000B4E0143B
:10069700F06003020795741EF0A85EE4F6A85EE614
:1006A700FFC3648094834003020795EF3395E0FE10
:1006B7009000B575F003EF12034BEE75F003A42518
:1006C70083F583E0C3948050399000B675F003EF4B
:1006D70012034BEE75F003A42583F583E0D39480D2
:1006E700405AE6FF3395E0FE9000B775F003EF122E
:1006F700034BEE75F003A42583F5837401F0F55CD5
:10070700803AA85EE6FF3395E0FE9000B675F003E9
:10071700EF12034BEE75F003A42583F583E0C39432
:100727008050199000B775F003EF12034BEE75F088
:1007370003A42583F5837402F0755C01A85EE6FFC8
:10074700FD3395E0FC9000B575F003ED12034BEC1B
:1007570075F003A42583F583E0FE9000B675F003DA
:10076700ED12034BEC75F003A42583F583EEF0EF50
:100777003395E0FE9000B575F003EF12034BEE756D
:0E078700F003A42583F5837494F0060206A403
:03079500055E22DC
:021A1000155E61
:091A1200A85EA65CE4F55CE6FFA9
:031A1B00055E2243
:10000E0090004C74FFF0A3741AF0A37410F09000DB
:0D001E004974FFF0A37406F0A37475F0227E
:10160100EF600764016003BF0233EFFD3395E0FC37
:101611009000B775F003ED12034BEC75F003A425B0
:1016210083F583E0FE9000B775F003ED12034BECF8
:0F16310075F003A42583F583E4F0AF06227F0351
:011640002287
:070B7600015D004100CB000E
:0D1A390020A409755D019000CB7401F0221E
:021A1E00155E53
:091A2000A85EA65DE4F55DE6FF99
:031A2900055E2235
:1018FB0090005874FFF0A3741AF0A3741EF09000BC
:0D190B005574FFF0A3741AF0A37439F02294
:0219E500155E8D
:0A19E7009000CBE0A85EF6FFE4F0EC
:0319F100055E226E
:100F01000216F1E493A3F8E493A34003F68001F2FF
:100F110008DFF48029E493A3F85407240CC8C333F1
:100F2100C4540F4420C8834004F456800146F6DFC0
:100F3100E4800B0102040810204080900A96E47EB0
:100F4100019360BCA3FF543F30E509541FFEE493B5
:100F5100A360010ECF54C025E060A840B8E493A37C
:100F6100FAE493A3F8E493A3C8C582C8CAC583CAA7
:100F7100F0A3C8C582C8CAC583CADFE9DEE780BE5F
:010B7D000077
:10003E00E709F608DFFA8046E709F208DFFA803EA4
:10004E0088828C83E709F0A3DFFA8032E309F60891
:10005E00DFFA8078E309F208DFFA807088828C83F9
:10006E00E309F0A3DFFA806489828A83E0A3F608AD
:10007E00DFFA805889828A83E0A3F208DFFA804C87
:10008E0080D280FA80C680D4806980F2803380105E
:10009E0080A680EA809A80A880DA80E280CA8033C7
:1000AE0089828A83ECFAE493A3C8C582C8CCC5833F
:1000BE00CCF0A3C8C582C8CCC583CCDFE9DEE7800F
:1000CE000D89828A83E493A3F608DFF9ECFAA9F08E
:1000DE00EDFB2289828A83ECFAE0A3C8C582C8CCE4
:1000EE00C583CCF0A3C8C582C8CCC583CCDFEADEFD
:1000FE00E880DB89828A83E493A3F208DFF980CC5F
:10010E0088F0EF60010E4E60C388F0ED2402B40457
:10011E000050B9F582EB2402B4040050AF232345FE
:06012E00822390008E7395
:10013400BB010CE58229F582E5833AF583E0225080
:1001440006E92582F8E622BBFE06E92582F8E222CA
:0D015400E58229F582E5833AF583E49322E4
:10016100EF8DF0A4A8F0CF8CF0A428CE8DF0A42EB2
:02017100FE226C
:10017300BC000BBE0029EF8DF084FFADF022E4CC70
:10018300F875F008EF2FFFEE33FEEC33FCEE9DEC39
:10019300984005FCEE9DFE0FD5F0E9E4CEFD22ED7F
:1001A300F8F5F0EE8420D21CFEADF075F008EF2FC9
:1001B300FFED33FD4007985006D5F0F222C398FDBA
:0501C3000FD5F0EA2257
:1001C800C2D5EC30E709B2D5E4C39DFDE49CFCEE52
:1001D80030E715B2D5E4C39FFFE49EFE120173C356
:1001E800E49DFDE49CFC800312017330D507C3E451
:0601F8009FFFE49EFE22C1
:1001FE00E88FF0A4CC8BF0A42CFCE98EF0A42CFCA0
:10020E008AF0EDA42CFCEA8EF0A4CDA8F08BF0A41D
:10021E002DCC3825F0FDE98FF0A42CCD35F0FCEB7C
:10022E008EF0A4FEA9F0EB8FF0A4CFC5F02ECD3941
:0F023E00FEE43CFCEAA42DCE35F0FDE43CFC22AE
:10024D0075F008758200EF2FFFEE33FECD33CDCC68
:10025D0033CCC58233C5829BED9AEC99E5829840EB
:10026D000CF582EE9BFEED9AFDEC99FC0FD5F0D6C8
:10027D00E4CEFBE4CDFAE4CCF9A88222B800C1B9F2
:10028D000059BA002DEC8BF084CFCECDFCE5F0CB30
:10029D00F97818EF2FFFEE33FEED33FDEC33FCEB69
:1002AD0033FB10D703994004EB99FB0FD8E5E4F924
:1002BD00FA227818EF2FFFEE33FEED33FDEC33FC11
:1002CD00C933C910D7059BE99A4007EC9BFCE99A05
:1002DD00F90FD8E0E4C9FAE4CCFB2275F010EF2F4A
:1002ED00FFEE33FEED33FDCC33CCC833C810D7074A
:1002FD009BEC9AE899400AED9BFDEC9AFCE899F885
:0E030D000FD5F0DAE4CDFBE4CCFAE4C8F92217
:10153C00C2D5E830E70FB2D5E4C39BFBE49AFAE4DA
:10154C0099F9E498F8EC30E717B2D512157212023B
:10155C0089E4C39BFBE49AFAE499F9E498F88003D4
:10156C0012028930D50DE4C39FFFE49EFEE49DFD7D
:04157C00E49CFC22CD
:10031B00E86010ECA2E713FCED13FDEE13FEEF13F8
:04032B00FFD8F022E5
:10032F00E493FC740193FD740293FE740393FF2214
:0C033F00ECF0A3EDF0A3EEF0A3EFF02231
:0C034B00A42582F582E5F03583F58322BD
:060357008A838982E47331
:00000001FF
